:020000040000FA
:100000000212FC022003FFFFFFFFFF02200BFFFF95
:10001000FFFFFF020E5DFFFFFFFFFF02201BFFFF40
:10002000FFFFFF022023FFFFFFFFFF02202BFFFF48
:10003000FFFFFF022033FFFFFFFFFF020EA0FFFFC5
:10004000FFFFFF022043FFFFFFFFFF02204BFFFFE8
:10005000FFFFFF022053FFFFFFFFFF02205BFFFFB8
:10006000FFFFFF022063FFFFFFFFFF02206BFFFF88
:10007000FFFFFF022073FFFFFFFFFF02207BFFFF58
:10008000FFFFFF022083FFFFFFFFFF02208BFFFF28
:10009000FFFF70DFFFFF040000000002000000C847
:1000A0000300030369A5020269A501000000000026
:1000B00004003273000074F8121043900393E06060
:1000C0001590030274FEF0900304744DF0A37405C0
:1000D000F07A011206747F0102116074F712104366
:1000E00074FF1212687E00801F851882851983E0D4
:1000F00064FE70069003877401F085188285198369
:10010000E0F8900384E068F07C017D00AA18AB1948
:10011000120E188B09EA450970030201E98518825D
:10012000851983E064EF70027E07E0C0E0900387EA
:10013000E0F8900385E0FAE82AF8E434001206C7F4
:10014000D0E0F0900387E060A014600E14602A14E1
:10015000603A14605014606680A0900384E4F085D7
:100160001882851983E0900386F0C39480900387FA
:100170004003E4808474028080851882851983E0BE
:10018000900382F090038774030200F9851882853A
:100190001983E0900383F0900386E0601990038751
:1001A00074040200F9900385E004F0F8900386E0FF
:1001B0006860030200FA90038774050200F9900357
:1001C00085E4F0900387F0900384E0F88518828539
:1001D0001983E06860030200FA900382E0644D60D6
:1001E000030200FA12031E8002EEF97401121234A7
:1001F0007F0202116074F712104374FB121268EA56
:10020000FEEBFF75080475090078081212CC740221
:100210001212E57A907B007904120EC17402121258
:1002200034120666121336E0687003A3E069701298
:10023000851882851983E0F47003A3E0F46003025B
:1002400002FE74041212DD1206D38A088B09A80874
:10025000A9097402121336E8F0A3E9F0740412132A
:1002600036E0600879011200B6020317851882850E
:100270001983E0687003A3E0697076851882851998
:1002800083E0F47003A3E0F470197402121336745F
:1002900010F0A37420F08518828519837410F0A3E0
:1002A0007420F075080175090078081212CC7402E8
:1002B0001212E57A247B08120F467402121234756A
:1002C000080478081212CC74021212E57A907B00AE
:1002D0007904120EC1740212123412066612133619
:1002E000E0687003A3E069700479028006790480F5
:1002F0000279031200B68E828F83741E80058E826F
:100300008F83E4F0120666121336E0687003A3E0F0
:1003100069700479018002790074050201ED74EDC1
:1003200012104374F8121268900307E0FA90030663
:10033000E0FB8B08EAF8E4C8F9EB28FEE93408FF93
:10034000751001880C750D068F0974027808121259
:1003500093C39508F8E49509F9740228F50E74031F
:1003600039F50F8E088F09740978081212EDE50827
:10037000F511EE2410F508E43FF509EEF50AEF5407
:1003800001F50B900383E0146054147003020453CE
:100390001470030204CE14601024FE700302058959
:1003A000147003020639020649750D03794E120CCA
:1003B0005890030712065C7402F0A3744012065AA8
:1003C000740812065AF0A3F0751012AA10A90C12A4
:1003D0000674A90D74081212347F0C021160750D99
:1003E00004794E120C58EE450B7005A911120FAC92
:1003F000C3EE9425EF9408503CC3E5089424E50926
:1004000094084031E50E2496F8E50F3420F98882EF
:100410008983E0701BA3AA82AB83E07013900388EA
:100420007401F08882898374A5F08A828B838004AA
:10043000900388E4F075081075090078081212CC52
:100440007C087D03EEFAEFFB120F467402121234A1
:100450000203CB750D05E511C394794006750C01B7
:100460000203CB75124075130078121212CC7C096E
:100470007D037402780A121293AA0AAB0BA9111217
:100480000EC17402121234900307E0A3F090030629
:10049000E0A3F0751043C3EE9425EF9408400302E7
:1004A00003CBC3E5089424E509940850030203CB69
:1004B000900388E070030203CBE50E2497F8E50F64
:1004C0003420F988828983E4F0A3F00203CB750815
:1004D0000475090078081212CC74021212E57A90A1
:1004E0007B007904120EC1740212123474021213CA
:1004F00036E0F8A3E0F9851882851983E068700377
:10050000A3E069851882851983700BE0F47003A35A
:10051000E0F470578009E0F47003A3E0F4700D85F7
:1005200018828519837410F0A37420F012066612E5
:100530001336E8F0A3E9F075080178081212CC74BC
:10054000021212E57A247B08120F4674021212344A
:1005500075080478081212CC74021212E57A907BA6
:10056000007904120EC174021212341206661213BC
:1005700036E0687003A3E0697006750D010203CBD5
:10058000750D02750C070203CB900391E0600764C0
:100590000260030203CBEAFF7A017900120674E0DD
:1005A000600302062D8003120D19120D23E970F766
:1005B000740412133612064E74041213367808129D
:1005C000131A85080C85090D850A0E850B0F9005F9
:1005D000A2780C1212B97404121336780C12130B91
:1005E000E5084509450A450B70CE8EC2E5C554E0C5
:1005F0004FF5C5740412133612064E7404121336E6
:10060000780812131A85080C85090D850A0E850BCA
:100610000F9005A2780C1212B97404121336780CDC
:1006200012130BE5084509450A450B70CE7A01798E
:100630000012067479080203D4EB900393F0700360
:100640000203CB750D090203CB79060203D4E4F053
:10065000A37426F0A3E4F0A3F022F0A3E4F0A3F047
:10066000A3F0A3F0A322851882851983E0F8A3E004
:10067000F974022274F6121043EAFE900305E0D2E8
:10068000E7F0E9A3F0EE900303F08E0A74042AFE6B
:100690007A028004E0620A0AEAF83395E01206C79B
:1006A0008E08C3E89508E99400A2D265D03340E4EF
:1006B000E50AF0740128FC3395E0FD7A027B031211
:1006C0000E487F03021160F9740228F58274033921
:1006D000F5832274E91210437582007583FE1211AE
:1006E000FB8A168B177514007515008A828B83E4BC
:1006F000F0900391E07006D2AAD2AF800464027039
:100700000579001200B6750C00750D20750E007588
:100710000F00900391E0600464027015120D19122D
:1007200000DBE9F87409686003020803790012002D
:10073000B675080075090278081212CC74021212FC
:10074000E5850C08850D09AA08E5095407FB850E07
:100750000A850F0B740B780812124FA908120EC1EC
:1007600074021212347E007F009005AAC0828E109F
:10077000EFF5113395E0F512F513850C08850D0999
:10078000850E0A850F0B780879101212A69005A61F
:1007900078081212B9758305D08278081211DC50DE
:1007A0001D851882851983E5822EF582E5833FF544
:1007B00083E0F9AA14AB151208328A148B150EEED9
:1007C00070010FC3EF940240A09005AE780C121296
:1007D000B99005B2780C1211DC40030207127900BF
:1007E000AA14AB1512083279001208328B15900347
:1007F00091E07004C2AFC2AAEA451570277AA57BC2
:10080000A58021E8700302073174066870030207AF
:100810003174076870030207318516828517837467
:1008200001F080BA7582007583021211FB7F1002FD
:100830001160C008C0097C088A088B09740F780809
:100840001212EDEA25E0FAEB33FBE9A2E75004745B
:10085000014AFAE508A2E0500874216AFA74106BA4
:10086000FBE9C333F91CEC70CFD009D0082274F730
:1008700012104378007900802374942508F582E4EF
:100880003403F583E08A828B83F09004141209F319
:100890004005900414E4F008E87001099004141273
:1008A000095D6007C3E89CE99D40CEE8FAE9FB7F5B
:1008B0000202116074F5121043900498E0FEA3E068
:1008C000FF8F08EEC39508F895E0F9EFC39EE85056
:1008D0000B120ADA701178007900801B247F500116
:1008E00009C39CE99D50EF7A007B008041E004F051
:1008F000D2E908E8700109C3E89CE99D502C8A827E
:100900008B83E0C0E0900499E0FE74182EF582E439
:100910003404F583D0E0120ACA90049AE4F09004FB
:1009200099E0C3947F40C6E480C5E8FAE9FB7F0400
:1009300002116074F7121043C2E990049812095D25
:10094000601874182508F582E43404F583E0F5C1D5
:10095000900498120AF14002E4F00208AFE0F508B2
:10096000A3E065082274F71210437800790090051F
:100970001DE07063A3E0705F75F900C28FC284A2AE
:100980008340FCA28F4004A28350F8E5F9C28FA2F5
:10099000835004D2848040C0E0E0FE749D2EF58236
:1009A000E43404F583D0E0F090051E120AF140D340
:1009B000E4F080CF749D2508F582E43404F583E0EB
:1009C0008A828B83F090051D1209F3400590051D66
:1009D000E4F008E870010990051D12095D6007C385
:1009E000E89CE99D40CEE8497006E4F090051DF0D2
:1009F0000208ABE004120ACEC394802274F81210ED
:100A0000439005A0E0FF8F82A88290059FE0FEEF53
:100A1000C39EE0500DC398F895E0F9120AD97018FA
:100A20008012C398F895E0F9E8247F500109C39C2F
:100A3000E99D4004EC4D70077A007B00020AC58AEC
:100A4000828B83E0F5F9A3AA82AB837801790080D9
:100A500008E004F008E8700109C3E89CE99D50270C
:100A60008A828B83E0C0E09005A0E0FE741F2EF523
:100A700082E43405F583D0E0120ACA9005A0E0C3F1
:100A8000947F40CDE480CCC28FA28340FCC284A27C
:100A90008F4004A28350F890059F120AE4E0F5F914
:100AA000C28F90059FE0FAA3E06A90059F7005123F
:100AB0000AE48005120AF14002E4F0A28350D0D289
:100AC00084E8FAE9FB7F01021160120ACE22F08A63
:100AD000828B83A3AA82AB8322E824FF18E934FF28
:100AE000F9E84922E0FA741F2AF582E43405F58317
:100AF00022E004F0C394802274FB1212687E0090FE
:100B000005CA780812131A9005CA7401F0A3F0A35D
:100B10007469F0A374A5F09005B6780812127E707F
:100B2000030E80159005BA780812127E6008E59DC4
:100B3000541864107003022000120C7EEEA2E050E4
:100B400003020BFBAA18AB191201F5E97003020BA3
:100B5000FB851882851983E0C3943C500CE0F8743F
:100B60003CC398FA95E0FB80047A007B00120D3CB0
:100B7000E97003020BFB900391E06401700C75F8BF
:100B800000C2AB539AF7D2EA805E79071200B680B2
:100B900003120D19120D23E970F77401121336E4D4
:100BA000F0A37426F0A3E4F0A3F0740112133678D6
:100BB0000812131A85080C85090D850A0E850B0F7E
:100BC0009005A2780C1212B97401121336780C1227
:100BD000130BE5084509450A450B70CE758600C222
:100BE000AAC28B539AFBC2E990000174CDF0022097
:100BF00000C2AF75C9AB75C95B80FE750800750989
:100C000000750A00750B00900391E0701BD2AAD208
:100C1000AF79051200B6E07003120D191200DBE97E
:100C2000F8740968700980E9794E120C5880ED74E7
:100C3000016870E2E07017120D199005BE78081275
:100C400012B99005C278081211DC50EBC2AAC2AFEB
:100C500075C9AB75C95B80FEC082C08378109005F2
:100C6000A1E0C399501575B60FE5B4A2E750FAE5B7
:100C7000BBC39940F118E870EDE9F0020D37C0826E
:100C8000C08353BEFBE59DA2E650FA0078F87901D7
:100C900000120AD970FA75C6807480659E70FA4396
:100CA000BE049062707408F0794A120C58900001EA
:100CB00074F5F07403F5D575D489A2A0E4339003DC
:100CC00091F0A2E05029D28453F3F753F3EF53FD90
:100CD000F743FD10538FF753F7DF43FC2043F10236
:100CE00053F5DF75F82043F4F0D2FED2AB802853E1
:100CF000FF3F85FFFF53F1FE43F30C53F2F375867C
:100D00008075C48090049BE4F0A3F075C2D875C5CB
:100D10000B75C402438640801E8003120933A2E98A
:100D200040F922C082C083900498E0F8A3E0686094
:100D300004790180027900D083D0822274F11210EC
:100D40004374FF1212687E00900391E06401706B9F
:100D5000C2849003927401F07508388E098E0A8E51
:100D60000B7C017D00AA18AB19120E188B0DEA45F9
:100D70000D6018851882851983E06410602CE0648A
:100D8000EF70088E088E098E0A8E0B85080C850977
:100D90000D850A0E850B0F9005A278081212B9E591
:100DA0000C450D450E450F70330E900391E0640124
:100DB0007056D284900392E4F08051D2AAD2AF8AC6
:100DC000088B09E4F50AF50B9005C6780C12131A86
:100DD0007808790C120FC379061200B6900391E0DF
:100DE0006003020D61120D191200DBE9F874096845
:100DF000700779061200B680927407686085E86013
:100E00008A74066870A48083C2AFC2AAEEF9740126
:100E10001212347F08021160C082C083900391E0F7
:100E2000700512086E801E900392E06015A28F502C
:100E30000BE5F98A828B83F07A0180027A007B00CD
:100E40008003120965020D37C082C083900391E0D0
:100E500070051208B480031209FC020D37C0E0745B
:100E6000F21210A9900001E064CD700512201380E9
:100E70002AE064F57024E5C1C28BC0E0900415E05F
:100E8000F8749428F582E43403F583D0E0F09004FC
:100E900015120AF14005E4F08001007F01021108FB
:100EA000C0E074F21210A9900001E064CD70051248
:100EB000203B800BE064F57005120933800100804F
:100EC000DA74F51210438908740F5508F50A750B8A
:100ED00000740B780A121293EA2400F8EB3480F9BC
:100EE000E82400E9350BF9E5C7F509A2AFE433F5CD
:100EF0000AC2AFE508C4540FFAE5C754F84AF5C76B
:100F0000740B121336E0FAA3E0FB801C88828983FD
:100F1000E08C828D83F088828983A3A882A9838C48
:100F2000828D83A3AC82AD83EAFEEBFFEE24FF1A31
:100F3000EF34FFFBEE4F70D48509C7E50AA2E092BB
:100F4000AF7F0402116074F7121043ED900389F033
:100F5000ECA3F0A37462F0A37473F0A3E0541FF049
:100F60007409121336E0F508A3E0F509E5083333F8
:100F700054FC90038EF0740678081212EDE5089088
:100F8000038DF090038F7412F0A37442F075D1FEBC
:100F900075D601EA906271F0EBA3F0906270E0D236
:100FA000E1F0E0A2E740FB7F02021160C082C08353
:100FB000E9C333906272F0906270E0D2E0F0D083C7
:100FC000D08222080808EAC0E0EBC0E086F0E7A47F
:100FD000FA180986F0E7A42AFA180986F0E7A42A85
:100FE000FA180986F0E7A42AFA1986F0E7A4FBE5C7
:100FF000F02AFA190886F0E7A42BFBE5F03AFA1973
:101000000886F0E7A42BFBE5F03AFA18180986F0F9
:10101000E7A4C5F02BFBE43AFA1908E7C5F0C6A42B
:1010200026F6E5F03BFBE43AFA1886F0E7A4F6E58D
:10103000F00826F6E43B08F6E43A08F6D0E0FBD0E8
:10104000E0FA222518C582C0E0E51934FFC583C047
:10105000E0E518C3958224F910AF088583198582CD
:10106000188008858319858218D2AFCEF0A3E520B9
:10107000F0A37808E608F0A3DEFAEFF0A3E58124F8
:10108000FBF8E608F0A3E608F0A30808E608F0A3DA
:10109000E608F0A315811581D0E0FED0E0F81581B7
:1010A0001581E8C0E0EEC0E022C0D02518C582C09E
:1010B000E0E51934FFC583C0E0E518C3958224F349
:1010C00010AF088583198582188008858319858269
:1010D00018D2AFC8F0A3E9F0A3EAF0A3EBF0A3792C
:1010E00008E709F0A3D8FAECF0A3EDF0A3EEF0A323
:1010F000EFF0A3D0E0F0A3D0E0F0A3D0E0F0A3E5C0
:1011000020F0A3E5F0F0A322851983851882E0C0C2
:10111000E0A3E0F9A3E0FAA3E0FBA37808E0F60877
:10112000A3DFFAE0FCA3E0FDA3E0FEA3E0FFA3E061
:10113000C0E0A3E0C0E0A3E0F5D0A3E0F520A3E089
:10114000A3F5F010AF088583198582188008858380
:1011500019858218D2AFD082D083D0E0F8D0E032A7
:10116000851983851882E0A3FEE0A3F5207808E0C6
:10117000A3F608DFFAE0A3FFE0A3C0E0E0A3C0E02D
:10118000E0A3C0E0E0A3C0E010AF0885821885832B
:10119000198008858218858319D2AFD083D0822226
:1011A000E490030278A179038002F0A3D8FCD9FA75
:1011B0007AA27B0590008E782979018015E493A3AB
:1011C000AD82AE838A828B83F0A3AA82AB838D82A9
:1011D0008E83D8E9D9E7120AF8121340C008C3E099
:1011E00096F50808A3E096420808A3E0964208088E
:1011F000A3E09645087001D3D00822C5822518C502
:1012000082C583351910AF07F5198582188007F557
:1012100019858218D2AFC583222518F58210AF0830
:10122000F518400C15198008F51840021519D2AFB1
:101230008519832200C0D0251810AF08F518500C6E
:1012400005198008F51850020519D2AFD0D02260D8
:1012500016080808C6C313C618C613C618C613C690
:1012600018C613C6D5E0EA22251810AF08F51840B5
:101270000C15198008F51840021519D2AF22E06646
:10128000701008A3E066700A08A3E066700408A363
:10129000E06622700422600D18C6C333C608C63348
:1012A000C6D5E0F41822E627F60809E637F608095D
:1012B000E637F60809E637F622E026F608A3E03618
:1012C000F608A3E036F608A3E036F62274028000A2
:1012D000C0E0F404121219D0E0121329222518FAE2
:1012E000E43519FB222518FCE43519FD22600C08B1
:1012F000C6C313C618C613C6D5E0F42275D0007550
:10130000813F7518027519030211A0E6F008A3E6E3
:10131000F008A3E6F008A3E6F022E0F608A3E0F662
:1013200008A3E0F608A3E0F622CAC0E0E6F0A308AE
:10133000DAFAD0E0FA222518F582E43519F583228D
:1013400000000080FBFFFFFFFFFFFFFFFFFFFFFF2D
:10135000FFFFFFFFFFFFFFFFFFFFFFFFFFFFFFFF9D
:10136000FFFFFFFFFFFFFFFFFFFFFFFFFFFFFFFF8D
:10137000FFFFFFFFFFFFFFFFFFFFFFFFFFFFFFFF7D
:10138000FFFFFFFFFFFFFFFFFFFFFFFFFFFFFFFF6D
:0A1FF600CA05094338860000000008
:020000040003F7
:01FFF000F020
:020000040000FA
:10200000022C330221EAFFFFFFFFFFFFFFFFFFFF6C
:10201000FFFFFFFFFFFFFFFFFFFFFFFFFFFFFFFFD0
:10202000FFFFFFFFFFFFFFFFFFFFFF0228F4FFFF9F
:10203000FFFFFFFFFFFFFFFFFFFFFFFFFFFFFFFFB0
:10204000FFFFFF022749FFFFFFFFFFFFFFFFFFFF2B
:10205000FFFFFF022124FFFFFFFFFFFFFFFFFFFF46
:10206000FFFFFFFFFFFFFFFFFFFFFF02291DFFFF35
:10207000FFFFFFFFFFFFFFFFFFFFFFFFFFFFFFFF70
:10208000FFFFFF02217B01FFFFFFFFFFFFFFFFFFBD
:102090001020102001FF01010503010F10FEFFAD0C
:1020A0004B00000000E34A00000000FF000000FFBA
:1020B000000196511800020000943C00000000E668
:1020C0003BD23D2E3C483D00001C3C00000000007F
:1020D0000000000000000000000000000000000000
:1020E00000000006FFFFFF0101006012000000FF7A
:1020F000FF2D13E80364006400B801020200080029
:102100000005020701051E02051E020A0A0103B8A6
:102110000B02803E0102FEFFE8030A050001CDAB81
:102120000A1401E0C0E074F2122566A2AFE433F5B0
:1021300008D2AFAFA7AEA1EE5F5410600612396AA5
:1021400075A1EFEE5F5408600812397075A1F78031
:1021500023EEA2E092F0EFA2E082F0501790619897
:10216000E0F8900B59E0C398A2D265D0335002E852
:10217000F075A1FE751A00E5088066C0E074F212E1
:102180002566A2AFE433FED2AF9061A4E0F8759B60
:1021900000E59158540860087591F71239B880230A
:1021A000E59158541060087591EF1239BE8014E51E
:1021B00091A2E092F0E8A2E082F05007E0C2E0F0E5
:1021C000123B149061A3E0F8E5E9585404600E1244
:1021D0003AEA75E9FB906193E0A2E640F2751A00D5
:1021E000EEA2E092AF7F010225C5C0E074F2122595
:1021F00066A2AFE433FED2AF9061A5E0F8E5BF5828
:102200005404600675BFFB123B2C80D1C3E498F8E0
:10221000E499F912224D8026C3E49AFAE49BFBE983
:1022200020E7E912224DE498F8E499F922C3E498F2
:10223000F8E499F912224DE498F8E499F9C3E49A84
:10224000FAE49BFB22EB20E7CFE920E7E0B900109E
:10225000BB0008E88AF084F8AAF022E4FBC8FA225E
:10226000EB70227B10C833C8C933C9335007C39AF7
:10227000C3DBF280069A50012ADBEAC833F4C8C9EE
:1022800033F4C9FA2275F008E4C833C8C933C93336
:10229000C99AC99B5004C92AC93BD5F0ECFBC83385
:1022A000F4C8E4C9FA2274F512250074FA122AB7A8
:1022B0007508047509007808122A0B7404122A970D
:1022C0007AF87B0779031238447402122A39908015
:1022D000C07808122C617402122CB87808122AF8FF
:1022E00070497508027509007808122A0B740212E9
:1022F0002A977AF67B0779031238447402122A3936
:10230000851882851983E0F47003A3E0F4601C85CE
:102310001882851983E0F8A3E0F988828983740222
:10232000F0A3F0A37469F0A374A5F0C2AF75D69FB3
:102330000200007406122A397F0402278C0808085C
:10234000EAC0E0EBC0E086F0E7A4FA180986F0E7FF
:10235000A42AFA180986F0E7A42AFA180986F0E7F1
:10236000A42AFA1986F0E7A4FBE5F02AFA190886F0
:10237000F0E7A42BFBE5F03AFA190886F0E7A42B66
:10238000FBE5F03AFA18180986F0E7A4C5F02BFB34
:10239000E43AFA1908E7C5F0C6A426F6E5F03BFBD7
:1023A000E43AFA1886F0E7A4F6E5F00826F6E43BEE
:1023B00008F6E43A08F6D0E0FBD0E0FA22E4CFC019
:1023C000E0E4CEC0E0E4CDC0E0E4CCC0E075F020B5
:1023D000E626F608E633F608E633F608E633F6189E
:1023E0001818EC33FCED33FDEE33FEEF33FFC3EC96
:1023F0009709ED9709EE9709EF97191919400FFF03
:10240000EC97FC09ED97FD09EE97FE191906D5F03A
:10241000BFECF709EDF709EEF709EFF7191919D035
:10242000E0FCD0E0FDD0E0FED0E0FF222518C58220
:10243000C0E0E51934FFC583C0E0E518C3958224E8
:10244000F810AF088583198582188008858319855F
:102450008218D2AFCEF0A3E520F0A37808E608F00A
:10246000A3DEFAEFF0A3E58124FAF8E608F0A3E68C
:1024700008F0A3E608F0A30808E608F0A3E608F0D1
:10248000A315811581D0E0FED0E0F81581158115E6
:1024900081E8C0E0EEC0E022122CADB900030224B6
:1024A000EAE49004D1780279118002F0A3D8FCD933
:1024B000FA781A9020867A01BA00028007E493A382
:1024C000F608DAF97AD27B14902094789179018019
:1024D00015E493A3AD82AE838A828B83F0A3AA8294
:1024E000AB838D828E83D8E9D9E77582237583E823
:1024F00074051229E575827675834874001229E502
:102500002518C582C0E0E51934FFC583C0E0E51891
:10251000C3958224F910AF08858319858218800835
:10252000858319858218D2AFCEF0A3E520F0A37879
:1025300008E608F0A3DEFAEFF0A3E58124FBF8E655
:1025400008F0A3E608F0A30808E608F0A3E608F000
:10255000A315811581D0E0FED0E0F815811581E842
:10256000C0E0EEC0E022C0D02518C582C0E0E51969
:1025700034FFC583C0E0E518C3958224F310AF088B
:102580008583198582188008858319858218D2AFC2
:10259000C8F0A3E9F0A3EAF0A3EBF0A37908E709F8
:1025A000F0A3D8FAECF0A3EDF0A3EEF0A3EFF0A3C4
:1025B000D0E0F0A3D0E0F0A3D0E0F0A3E520F0A3BA
:1025C000E5F0F0A322851983851882E0C0E0A3E03E
:1025D000F9A3E0FAA3E0FBA37808E0F608A3DFFA8A
:1025E000E0FCA3E0FDA3E0FEA3E0FFA3E0C0E0A3C6
:1025F000E0C0E0A3E0F5D0A3E0F520A3E0A3F5F070
:1026000010AF088583198582188008858319858213
:1026100018D2AFD082D083D0E0F8D0E032E4730C8F
:1026200075F0108E218F228582268583258518825C
:10263000851983E0CEA3E0CF852682852583EBC96B
:10264000EAC8EDCBECCAC3E833C8E933C9EA33CAF8
:10265000EB33CBC3EA9EF524EB9FF523B35004ABD9
:1026600023AA24EC33CCED33CDD5F0DAAE21AF2262
:1026700022D083D082ECC0E0EDC0E0E493A3FCE480
:1026800093A3FDED4C600D1227CCEC24FFFCED3440
:10269000FFFD80EFE493A3FCE493A3FDED4C600DFC
:1026A00012289FEC24FFFCED34FFFD80EFD0E0FD0D
:1026B000D0E0FCE493A3C0E0E493C0E0228519835A
:1026C000851882E0A3FEE0A3F5207808E0A3F608D1
:1026D000DFFAE0A3FFE0A3C0E0E0A3C0E0E0A3C016
:1026E000E0E0A3C0E0E0A3C0E010AF088582188559
:1026F00083198008858218858319D2AFD083D08250
:102700000229EBD083D082E9C0E0E493A3C386F032
:10271000C5F095F0F908E493A386F0C5F095F07044
:102720000BE493A3C3994005E9048002A3E475F088
:1027300002A42582F582E5F03583F583D0E0F9E443
:1027400093A3C0E0E493C0E022C0E074F2122566D7
:10275000A2AFE433FED2AFC2C09013CAE0700BE563
:10276000D1A2E4501D1238C88018E5D1A2E350066A
:1027700075D1F712389EE5D1A2E4500675D1EF125B
:1027800038A4EEA2E092AF7F010225C585198385AA
:102790001882E0A3FEE0A3F5207808E0A3F608DFA6
:1027A000FAE0A3FFE0A3C0E0E0A3C0E0E0A3C0E044
:1027B000E0A3C0E010AF08858218858319800885E2
:1027C0008218858319D2AFD083D08222C0E0C3E4BF
:1027D0009396087401939618400FE4936670080866
:1027E000740193661870007019A3A3C3E49396084C
:1027F0007401939618A3A3400DD0E0D0E0D0E0027E
:1028000026ADA3A3A3A3A3A3D0E022D083D082C5E7
:10281000F0E493A3C5F0C395F0F5F0E493A3C3955A
:10282000F04005E5F0048001E475F002A42582F58E
:1028300082E5F03583F583E493A3C0E0E493C0E040
:10284000227404800474028000CCC0E0EDC0E0E596
:1028500018C39CCCAD1950011D10AF068C188D19F2
:1028600080068C188D19D2AF122967D0E0FDD0E018
:10287000FC2274028000CCC0E0EDC0E0E518C39CEF
:10288000CCAD1950011D10AF068C188D1980068C27
:10289000188D19D2AF122945D0E0FDD0E0FC22C03E
:1028A000E0C0F088F0E4936670080874019366183D
:1028B0007000A8F0A3A3700BD0F0D0E0D0E0D0E07F
:1028C0000226ADA3A3D0F0D0E022D083D082CCC02A
:1028D000E0E493A360061229C61470FAE493A3609F
:1028E00006122ACD1470FAD0E0FCE493A3C0E0E411
:1028F00093C0E022C0E0C0D0E8C0E0E9C0E0A9A8F1
:10290000D2AFC2C7751A00E9A2E7E433F8E9A2E73B
:1029100092AFD0E0F9D0E0F8D0D0D0E032C0E0748F
:10292000F2122566758900C2C59013CAE0700E7A4E
:10293000007B10900C0FE0F9123F9480031246E4E4
:102940007F010225C5CAC0E0E493A3C582CCC5823D
:10295000C583CDC583F0A3C582CCC582C583CDC553
:1029600083DAE5D0E0CA22CAC0E0E0A3C582CCC5C4
:1029700082C583CDC583F0A3C582CCC582C583CD76
:10298000C583DAE6D0E0CA2270090808082260167A
:10299000181818C6C333C608C633C608C633C608D7
:1029A000C633C6D5E0EA22C008C3E096F50808A3FE
:1029B000E096420808A3E096420808A3E09645087E
:1029C0007001D3D00822C0E0E493A3D39C5010E45C
:1029D00093A3C39C400AD0E0D0E0D0E00228E7A354
:1029E000A3A3D0E022C09FF59FE473D09F22D083A1
:1029F000D082C09FE493C0E0740193C0E07402935E
:102A0000F59F227404800A740380067402800274A5
:102A100001C0E0F404122A1ED0E0122C7022251806
:102A2000F58210AF08F518400C15198008F518400C
:102A3000021519D2AF8519832200C0D0251810AF16
:102A400008F518500C05198008F51850020519D220
:102A5000AFD0D022BB0102E722C082C08389828A24
:102A600083BB0003E08002E493D083D0822260160F
:102A7000080808C6C313C618C613C618C613C61856
:102A8000C613C6D5E0EA222518F8E43519F922253F
:102A900018FAE43519FB222518FCE43519FD22C388
:102AA000E0C696F608A3E0C696F608A3E0C696F63A
:102AB00008A3E0C696F622251810AF08F518400CBA
:102AC00015198008F51840021519D2AF22C0E0E4AC
:102AD00093A36C7009D0E0D0E0D0E00228E7A3A374
:102AE000D0E022C3E09608A3E09608A3E09608A3EE
:102AF000E096A2D265D03322E066701008A3E066AB
:102B0000700A08A3E066700408A3E06622E7667016
:102B1000100809E766700A0809E76670040809E703
:102B20006622C3E697F60809E697F60809E697F6DF
:102B30000809E697F622C3E096F008A3E096F008AD
:102B4000A3E096F008A3E096F022E657F60809E61F
:102B500057F60809E657F60809E657F622E056F652
:102B600008A3E056F608A3E056F608A3E056F622BE
:102B7000E026F008A3E036F008A3E036F008A3E072
:102B800036F022E026F608A3E036F608A3E036F693
:102B900008A3E036F622E627F60809E637F6080924
:102BA000E637F60809E637F622E647F60809E6476B
:102BB000F60809E647F60809E647F622E056F00867
:102BC000A3E056F008A3E056F008A3E056F0227008
:102BD0000422600D18C6C333C608C633C6D5E0F458
:102BE0001822E4C396F608E496F608E496F608E49C
:102BF00096F622C3E7960809E7960809E7960809BA
:102C0000E79622C6F4C608C6F4C608C6F4C608C6C7
:102C1000F4C622600D08C6A2E713C618C613C6D5AF
:102C2000E0F322C3E09608A3E09608A3E09608A389
:102C3000E0962275D00075813F7518D17519040092
:102C4000022498600C08C6C313C618C613C6D5E084
:102C5000F422E6F008A3E6F008A3E6F008A3E6F005
:102C600022E0F608A3E0F608A3E0F608A3E0F622C7
:102C7000CAC0E0E6F0A308DAFAD0E0FA22EAF0A34C
:102C8000EBF0A3ECF0A3EDF022E0FAA3E0FBA3E06D
:102C9000FCA3E0FD22E0F8A3E0F9A3E0FAA3E0FB47
:102CA00022E8F0A3E9F0A3EAF0A3EBF022E5C75491
:102CB000F84401F5C77901222518F582E43519F5A4
:102CC00083221229EE5EB2031229EED4B203122936
:102CD000EE40B3031229EE5CB3031229EE8DB30369
:102CE0001229EECCB3031229EECDB4031229EE7CE7
:102CF000B5031229EE09B8031229EE62B9031229AD
:102D0000EEF5B9031229EECABA031229EE40BB034D
:102D10001229EEA8BC031229EEC6BC031229EE004C
:102D200080021229EE5A80021229EEC48002122972
:102D3000EE4D81021229EE0982021229EE51820221
:102D40001229EE8C82021229EEE282021229EE4A48
:102D500083021229EECE83021229EEE783021229A2
:102D6000EE0C84021229EE4A84021229EE998402A2
:102D70001229EEC284021229EE1185021229EEBD3B
:102D800085021229EE8586021229EEEA86021229B0
:102D9000EEB787021229EEFD87021229EE1988028A
:102DA0001229EE4B88021229EEF389021229EECA8B
:102DB0008A021229EEF68A021229EE2C8B021229BF
:102DC000EE4D8B021229EE5C8B021229EE678B020C
:102DD0001229EE1B8C021229EE8E8C021229EE00B3
:102DE0008D021229EE088D021229EE838D0212291E
:102DF000EEDC8D021229EE1F8E021229EEB1900236
:102E00001229EEF791021229EE8794021229EE6F31
:102E100095021229EEA295021229EE649602122959
:102E2000EE1397021229EE5B97021229EEBD97026C
:102E30001229EEE297021229EEF397021229EE6BA5
:102E400098021229EEF398021229EE5799021229DC
:102E5000EE3C9A021229EE619A021229EE829B023E
:102E60001229EEA09B021229EEB39B021229EE2634
:102E70009C021229EE359C021229EEBD9C021229F9
:102E8000EE0B9D021229EE149D021229EE149F02F0
:102E90001229EE68A0021229EE78A0021229EE94FF
:102EA000A1021229EE0DA2021229EE43A302122959
:102EB000EE85A3021229EEC1A3021229EE95A50206
:102EC0001229EEFAA7021229EE0EA8021229EE1814
:102ED000A8021229EE22A8021229EE2CA802122919
:102EE000EE36A8021229EE4FA8021229EE59A802C6
:102EF0001229EE63A8021229EE6DA8021229EE9C97
:102F0000A8021229EEC4A8021229EECFA8021229A3
:102F1000EE19A9021229EE23A9021229EE2EA90206
:102F20001229EE52A9021229EE76A9021229EED731
:102F3000A9021229EE22AA021229EE3EAA021229A1
:102F4000EEA8AA021229EEF4AA021229EE3CAB0264
:102F50001229EEB7AB021229EE51AC021229EE157E
:102F6000AE021229EE83AE021229EEB5AF0212298B
:102F7000EEDBAF021229EE4BB1021229EEFFB402D2
:102F80001229EEFFB6021229EED7B8021229EE700E
:102F9000B9021229EE82BB021229EE44BC021229A8
:102FA000EE90BC021229EEF6BC021229EE08BD0218
:102FB0001229EE58BF021229EE47C0021229EE86EE
:102FC000C1021229EED8C1021229EE7DC2021229D5
:102FD000EE38C4021229EE69C5021229EE87C50235
:102FE0001229EEDCC5021229EEDAC6021229EE021F
:102FF000C7021229EE65C7021229EE66C80212291D
:10300000EED9C8021229EE07CA021229EE72CA02CC
:103010001229EE62CB021229EEC8CD021229EEF679
:10302000CD021229EEF1CE021229EE8FD002122922
:10303000EEDFD0021229EE97D1021229EE4CD20215
:103040001229EEB0D2021229EE69D3021229EE093A
:10305000D4021229EE6DD4021229EEB7D40212293D
:10306000EEF4D4021229EE5CD6021229EE0181019F
:103070001229EE4381011229EE3E84011229EE91BC
:1030800084011229EED784011229EE188601122933
:10309000EE7D86011229EEBD86011229EE0088011F
:1030A0001229EE428B011229EE6B8C011229EEAC33
:1030B00097011229EE4C98011229EE3F9B0112292B
:1030C000EE769C011229EEEC9C011229EE169E016F
:1030D0001229EE669F011229EE4DA0011229EEB6CB
:1030E000A2011229EEC4A4011229EE55A50112294C
:1030F000EE29A6011229EEB5A6011229EEBFA601FE
:103100001229EEE7A6011229EE94A7011229EE7FFB
:10311000A8011229EE52A9011229EEDFA9011229F4
:10312000EEF5A9011229EE59AA011229EE82AA018F
:103130001229EEAFAA011229EEF4AC011229EECF4A
:10314000AD011229EE13AE011229EE84AE0112294F
:10315000EE3DAF011229EE6FAF011229EEB6AF01BD
:103160001229EEE9AF011229EE4EB0011229EE9DAF
:10317000B0011229EEA2B0011229EEF6B001122917
:10318000EE40B1011229EE3CB2011229EEA1B201CA
:103190001229EEFFB2011229EE49B6011229EE1DE5
:1031A000B7011229EEAAB8011229EE84BB01122937
:1031B000EE37BC011229EE5EBE011229EE03BF01FB
:1031C0001229EE41BF011229EE11C1011229EE248C
:1031D000C1011229EE2DC1011229EE36C1011229B9
:1031E000EE4BC1011229EE6AC1011229EE9FC30103
:1031F0001229EEF2C3011229EEFCC3011229EE06D8
:10320000C4011229EE61C4011229EEBDC4011229C4
:10321000EED5C5011229EE36C6011229EE85C70189
:103220001229EECEC7011229EEA6C8011229EED14D
:10323000C9011229EE87CA011229EE89CB01122990
:10324000EE8BCC011229EE70CD011229EE87CD0153
:103250001229EEC4CD011229EECECD011229EED8ED
:10326000CD011229EEE3CD011229EE01CE01122982
:10327000EE43CE011229EEA1CE011229EEC6CE01F7
:103280001229EEE0CE011229EE6DCF011229EEA631
:10329000CF011229EEF6D0011229EE4DD1011229EB
:1032A000EE67D2011229EE9DD2011229EE39D30127
:1032B0001229EEB5D3011229EE25D5011229EE40CF
:1032C000D6011229EE06D7011229EEB0D701122934
:1032D000EE35D8011229EE9DD8011229EE52D901FE
:1032E0001229EEA4D9011229EE19DA011229EEE20F
:1032F000DA011229EE05DB011229EEC9DB011229E0
:10330000EEEDDB011229EE0FDC011229EE70DC017B
:103310001229EEBBDE011229EE96DF011229EE40E2
:10332000E0011229EE81E2011229EECFE201122919
:10333000EE12E3011229EE6AE3011229EEC8E3015D
:103340001229EEF2E3011229EE16E4011229EE47EA
:10335000E4011229EE71E4011229EEB8E401122908
:10336000EE16E5011229EE72E5011229EE73E6016F
:103370001229EEDDE7011229EE1BE8011229EE44C5
:10338000E8011229EED5E8011229EE1FE901122900
:10339000EE43E9011229EE99E9011229EEB4E9019F
:1033A0001229EE6FEA011229EE99EA011229EEEFD5
:1033B000EA011229EEF4ED011229EE27EE0112299D
:1033C000EEE4EE011229EEBFEF011229EE4FF001FB
:1033D0001229EE90F0011229EEF6F6051229EE35CB
:1033E000F7051229EE44BD031229EEEDBD031229A3
:1033F000EECCBE031229EEE7BF031229EE07C0038D
:103400001229EE29C1031229EEC6C2031229EE3396
:10341000C3031229EE09C4031229EE0FC5031229B2
:10342000EE74C5031229EEB0C5031229EE09C603D6
:103430001229EE42C6031229EE8BC6031229EE1D95
:10344000C7031229EEBAC7031229EE8FC803122947
:10345000EE5CC9031229EEE9C9031229EE0FCA0373
:103460001229EE3CCA031229EE6DCA031229EE425C
:10347000CB031229EE52CB031229EEA5CB0312295E
:10348000EEB2CB031229EEBFCB031229EEC8CB0359
:103490001229EE2CCC031229EE8ACC031229EED588
:1034A000CC031229EEF0CC031229EE17CD0312291A
:1034B000EE34CD031229EE40CD031229EEE4CE0303
:1034C0001229EEFDCE031229EE79CF031229EE8CDC
:1034D000CF031229EE9CCF031229EE42D00312290A
:1034E000EEB2D1031229EEC5D2031229EE65D30341
:1034F0001229EE6FD3031229EEDDD3031229EEEE6B
:10350000D3031229EE2DD4031229EE5BD403122922
:10351000EE28D5031229EE7FD5031229EEC4D50378
:103520001229EE1AD6031229EE38D6031229EE8696
:10353000D6031229EE54D7031229EEA2D70312297B
:10354000EEE4D7031229EE67D8031229EE91D803CF
:103550001229EEC7D8031229EED6D8031229EE3469
:10356000D9031229EEACD9031229EEEDD9031229A1
:10357000EE3CDA031229EE67DA031229EE81DA0350
:103580001229EE9BDA031229EE70DB031229EE7A80
:10359000DB031229EEB5DB031229EEC5DB0312298A
:1035A000EECEDB031229EE1FDC031229EE33DC031F
:1035B0001229EE51DD031229EE64DD031229EE7BA0
:1035C000DD031229EE90DD031229EE2ADE03122913
:1035D000EEA9DE031229EE4CDF031229EE57DF03BA
:1035E0001229EEA4E0031229EEC0E0031229EE181E
:1035F000E1031229EE86E1031229EED2E10312293A
:10360000EEECE1031229EE4CE2031229EEEAE203AA
:103610001229EE35E3031229EE98E5031229EE3064
:10362000E6031229EEA7E6031229EEEDE8031229BC
:10363000EE05E9031229EE08E9031229EE14E90365
:103640001229EE28E9031229EE30E9031229EE6768
:10365000E9031229EE5BEA031229EEE5EA031229D7
:10366000EE67EB031229EEDCEB031229EEB4EC0358
:103670001229EED6EC031229EE6DED031229EE7934
:10368000ED031229EED6ED031229EED9ED0312292E
:10369000EE06EE031229EE1BEE031229EE8AEE036C
:1036A0001229EED6EF031229EEE9F0031229EE7487
:1036B000F1031229EE87F2031229EE51F3031229C6
:1036C000EE82F3031229EEA8F3031229EEB1F303FD
:1036D0001229EEE0F3031229EE90F4031229EE40D2
:1036E000F5031229EEB3F5031229EE65F60312294C
:1036F000EED8F6031229EE17F7031229EE60F7034E
:103700001229EE95F7031229EE34E7041229EE9FF1
:10371000E7041229EEE6E7041229EE5CE804122918
:10372000EEACE8041229EE30E9041229EE74EB0441
:103730001229EE92ED041229EE6FF1041229EEEF38
:10374000F1041229EE2AF2041229EE48F204122999
:10375000EEA8F2041229EED0F2041229EE00F304CE
:103760001229EE31F3041229EE5EF3041229EEB7AA
:10377000F3041229EE02F4041229EE008005122946
:10378000EE7C80051229EEA880051229EEDA80056C
:103790001229EE3C82051229EE5882051229EE9676
:1037A00082051229EE2383051229EE7F8305122953
:1037B000EE4584051229EE0485051229EE4985059A
:1037C0001229EEAA85051229EE1F86051229EE4858
:1037D00086051229EE8986051229EE308805122900
:1037E000EE1489051229EECB89051229EEB88A0557
:1037F0001229EEF28A051229EE4A8B051229EE6C87
:103800008B051229EE048C051229EEAB8C051229CA
:10381000EE62F3051229EE73F3051229EE0EF4059C
:103820001229EEF3FF041229EEE8FF021229EE9CA2
:10383000F2051229EEACF2051229EEC1F2051229A9
:10384000EE52F3051229EEF0FE041229EE74FF0485
:103850001229EEDAFF041229EEF27F001229EE6837
:10386000F7051229EE78F7051229EE7BF7051229E4
:10387000EE7EF7051229EEF87F001229EE0FE6051D
:103880001229EE31E6051229EE9CE7051229EE20F9
:10389000E8051229EE3FF7051229EE48F70512292F
:1038A000EE51F7051229EE5FF7051229EEAE9A05E3
:1038B0001229EE1B9B051229EEE39B051229EEDA75
:1038C0009C051229EEC59E051229EE1F9F0512299F
:1038D000EE779F051229EE889F051229EE9A9F0523
:1038E0001229EE06A0051229EE1AA0051229EE25CE
:1038F000A0051229EE33A0051229EE45A0051229D4
:10390000EE02A6051229EE2EA6051229EED4A80570
:103910001229EE2BA9051229EE67A9051229EE7BC3
:10392000A9051229EE94A9051229EE85AA051229E6
:10393000EE61AB051229EE75AB051229EE7AFE0198
:103940001229EE9EFE011229EEB7FE011229EEF5B4
:10395000FE011229EE2BFF011229EE5EFF01122952
:10396000EE68FF011229EED4FF011229EED7FF0104
:103970001229EEE1FF011229EEEEFF011229EED726
:10398000DE051229EEFADE051229EE45DF051229C1
:10399000EE63DF051229EE7EDF051229EEE4DF0576
:1039A0001229EEF0DF051229EE4DE0051229EE7125
:1039B000E0051229EE37E1051229EE44E10512294E
:1039C000EE55E1051229EE18F6051229EE30F6053E
:1039D0001229EE56F6051229EE8FA6031229EE499A
:1039E000B2051229EE57B2051229EE6BB205122963
:1039F000EE88B2051229EE9DB2051229EEB0B2058D
:103A00001229EE32B3051229EE97B3051229EE1FE3
:103A1000B4051229EE97B4051229EE70B5051229E6
:103A2000EE80B5051229EE8FB5051229EE7FF5055A
:103A30001229EEA3F5051229EE22B2031229EEF3A4
:103A4000F5051229EE40D9051229EEACD905122947
:103A5000EECBD9051229EE40DA051229EE0ADC0573
:103A60001229EE23DC051229EE3ADC051229EE4379
:103A7000DC051229EE5BDC051229EE65DC05122956
:103A8000EE6FDC051229EE82DC051229EE0FDD0552
:103A90001229EE7EDD051229EEACDD051229EEFDC0
:103AA000DD051229EE49DE051229EE64DE05122934
:103AB000EE6EDE051229EE7FDE051229EEC2DE056E
:103AC0001229EE9FF6051229EEEAF6051229EE43B9
:103AD000F6021229EE6FF6021229EE92F602122970
:103AE000EEA5F6021229EEC0F6021229EE20F70228
:103AF0001229EE4EF7021229EE4DFB021229EE8A30
:103B0000FC021229EEBCFC021229EE23FD0212294E
:103B1000EEADFE021229EED5FE021229EEEAFE02F9
:103B20001229EEFAFE021229EE3AFF021229EE7C69
:103B3000FF021229EE8CFF021229EEF7EC05122982
:103B4000EE07ED051229EE2BED051229EE54ED05D9
:103B50001229EE7EED051229EEA2ED051229EEB92D
:103B6000ED051229EEE7ED051229EE0AEE05122900
:103B7000EE3E7F001229EE847F001229EE99CF05D8
:103B80001229EEA9CF051229EEC7D0051229EEFBA6
:103B9000D0051229EE1DD1051229EE45D1051229B5
:103BA000EE5ED1051229EE9AD1051229EE00D2055A
:103BB0001229EE3CD2051229EE81D2051229EEAE71
:103BC000D2051229EEDAD2051229EEDCC705122938
:103BD000EE3EC8051229EEE5C8051229EE1CC905FE
:103BE0001229EE72D8041229EE1DD9041229EEBA58
:103BF000DA041229EE36DB041229EE6EDB041229F8
:103C0000EE72DE041229EE0AE0041229EE78E004D6
:103C10001229EE3FE4041229EEE1E5041229EE42F6
:103C2000EE051229EE6AEE051229EE41EF05122982
:103C3000EE59A0051229EEDCA0051229EEF3A0052D
:103C40001229EE66A1051229EECCA1051229EEF586
:103C5000A1051229EE88A2051229EE27A305122933
:103C6000EE8AA3051229EEEDA3051229EE0DA40597
:103C70001229EE3DA4051229EE59A4051229EE8859
:103C8000A4051229EEB8A4051229EEEEA405122906
:103C9000EE4EA5051229EE51F1011229EE21F20195
:103CA0001229EE46F2011229EE66F2011229EE7A8D
:103CB000F2011229EEEBF2011229EE0FF3011229A3
:103CC000EE8AF4011229EEB2F5011229EE8CF6010A
:103CD0001229EEE3F6011229EE0FF7011229EE7E0A
:103CE000F7011229EEE8F7011229EE09F80112296D
:103CF000EE77F8011229EE11FA011229EE6CFA01A1
:103D00001229EE10FC011229EEDCFC011229EE173B
:103D1000FD011229EE49FD011229EE6EFD01122965
:103D2000EE95FD011229EEA9FD011229EE12FE0108
:103D30001229EE66FE011229EE8BE1051229EE959D
:103D4000E1051229EEB6E1051229EE08C90412298F
:103D5000EE06CC041229EE6DCD041229EE49CF04F3
:103D60001229EEB5CF041229EE85D0041229EEE116
:103D7000D0041229EE22D1041229EEDDD104122939
:103D8000EE50D2041229EE53D2041229EE56D20478
:103D90001229EE59D2041229EE79D2041229EE7CAE
:103DA000D2041229EE95D2041229EEF9D204122976
:103DB000EEF0D3041229EE20D5041229EE6DD504BD
:103DC0001229EE87D6041229EE98D7041229EECFD5
:103DD000D6021229EE07D7021229EE88DB02122939
:103DE000EE86DC021229EECADC021229EE05DD02A3
:103DF0001229EE33DD021229EE70DD021229EE9E49
:103E0000DD021229EEACDE021229EEE4DE021229F6
:103E1000EE12DF021229EE48DF021229EEE6DF027F
:103E20001229EE0CE0021229EE52E0021229EEB93C
:103E3000E1021229EE47E2021229EE28E3021229DA
:103E4000EEDDE3021229EE12E4021229EE6AE40228
:103E50001229EED6E4021229EE66E5021229EEB12D
:103E6000E5021229EE55E6021229EE93E702122925
:103E7000EE8AE8021229EE35E9021229EE87E902FC
:103E80001229EEF3E9021229EE86EA021229EEB4B3
:103E9000EA021229EE69EC021229EEDCEC02122988
:103EA000EE1CED021229EE5BED021229EE74ED021A
:103EB0001229EE0FEE021229EEE3EE021229EE9C19
:103EC000EF021229EE36F0021229EEDEF00212297C
:103ED000EE4AF1021229EEEDF1021229EE6FF20222
:103EE0001229EE8DF2021229EE9EF3021229EE5DE6
:103EF000F4021229EE01F5021229EE90F5021229C0
:103F0000EE0FEA051229EE46EA051229EE6CEB05E2
:103F10001229EE6FEB051229EE28F4051229EE7B2B
:103F2000F4051229EEBDF4051229EECDF40512298F
:103F3000EE3194051229EE7894051229EEE19405EC
:103F40001229EE0295051229EE1B95051229EECDD8
:103F500095051229EED695051229EE279605122908
:103F6000EE5D96051229EE7496051229EEE196058E
:103F70001229EE7197051229EEA797051229EEF086
:103F800097051229EE5198051229EE8B98051229F2
:103F9000EEF398051229EE4699051229EE89990546
:103FA0001229EEC699051229EED899051229EEEAD2
:103FB00099051229EE249A051229EE709A05122904
:103FC000EEC0B5051229EE06B7051229EE2FB7058A
:103FD0001229EE40B7051229EE58B9051229EE78DC
:103FE000B9051229EECBE3051229EE01E4051229E9
:103FF000EE50E4051229EEACE5051229EEECB4040E
:104000001229EE2AB6041229EE66B6041229EE35FC
:10401000B8041229EE5FB8041229EEF6BA04122988
:10402000EE36BB041229EECCBC041229EE61BD04AD
:104030001229EEBFBD041229EE45BE041229EE7D01
:10404000BE041229EEBFBE041229EE30C0041229AC
:10405000EEB4C1041229EEDDC3041229EE0BC40430
:104060001229EE37C4041229EE40C4041229EE9638
:10407000C4041229EE26C5041229EE29C804122907
:10408000EEABC8041229EED7F4051229EEEDF405C3
:104090001229EEF7F4051229EE47F5051229EE80F4
:1040A000BF051229EE99BF051229EE3EC00512295F
:1040B000EE7EC0051229EE97C0051229EECAC00592
:1040C0001229EE17C1051229EE4BC1051229EE8DFA
:1040D000C1051229EE66C3051229EED1C3051229C6
:1040E000EE72EF051229EEC7EF051229EE21F00559
:1040F0001229EE9CF0051229EE0EF1051229EE4C64
:10410000F1051229EE8DF1051229EEFDF7031229B2
:10411000EE03F8031229EE4AF8031229EE56FA03C9
:104120001229EE86FA031229EEF0FA031229EEABF9
:10413000FB031229EEEEFB031229EE1FFC031229EA
:10414000EEA9FC031229EEC0FC031229EECDFC03FC
:104150001229EED7FC031229EE77FE031229EE692D
:10416000FF031229EEC7FF031229EEC276001229BF
:10417000EED876001229EE8A77001229EEB4780084
:104180001229EEA979001229EE467A001229EE8151
:104190007A001229EEF37A001229EE517B001229DF
:1041A000EE617B001229EE887B001229EEDA7B009B
:1041B0001229EE427D001229EE477D001229EE6998
:1041C0007D001229EE329B041229EE8A9B041229EB
:1041D000EEA59C041229EE709D041229EE879D0421
:1041E0001229EED39D041229EE439E041229EE56A5
:1041F0009E041229EE9A9E041229EE099F041229A8
:10420000EE65A1041229EE6BA2041229EEC6A204E7
:104210001229EEB5A4041229EE60A5041229EE9924
:10422000A5041229EEE4A5041229EEFAA504122928
:10423000EE07A6041229EE40A6041229EE52A604A7
:104240001229EE30A7041229EE3BA7041229EE9A98
:10425000A7041229EEEDA7041229EE39A8041229A9
:10426000EE72A9041229EE9AA9041229EE12AC04E6
:104270001229EE3AAC041229EE53AD041229EE8253
:10428000AD041229EEF4AD041229EE00AE04122999
:10429000EE34AE041229EEA8AE041229EE85AF0466
:1042A0001229EEBEAF041229EEC8AF041229EECBDC
:1042B000AF041229EED5AF041229EEF1AF04122992
:1042C000EE6DB0041229EEA6B0041229EEC2B004BD
:1042D0001229EEEFB0041229EE2AB1041229EE459C
:1042E000B1041229EE4FB1041229EE7EB104122955
:1042F000EE98B1041229EEB3B1041229EEE2B10432
:104300001229EE02B2041229EE4BB2041229EE86F3
:10431000B2041229EE92B3041229EEAFF10512296C
:10432000EEC0F1051229EE4BF2051229EE89AB051C
:104330001229EEC7AB051229EE60AC051229EE6B0F
:10434000AD051229EEB3AF051229EE30B0051229E2
:10435000EEF88C051229EE478D051229EE058F0522
:104360001229EED990051229EE1791051229EEF8BF
:1043700091051229EE0293051229EE2493051229C4
:10438000EE8093051229EE0194051229EE0C4E00E1
:104390001229EE2E4E001229EE844F001229EECD86
:1043A0004F001229EE3F50001229EEC15000122991
:1043B000EE3D51001229EE8E51001229EEF451000B
:1043C0001229EE9752001229EE0C53001229EE4BDF
:1043D00053001229EE6457001229EE815900122968
:1043E000EEBF59001229EE035A001229EE0A5B00B3
:1043F0001229EE215E001229EEB15E001229EE4D67
:1044000060001229EE7D61001229EE9662001229E9
:10441000EE0763001229EECE63001229EE3364002A
:104420001229EE3664001229EEFC64001229EE46D1
:1044300066001229EE8F68001229EE1C6B0012290B
:10444000EEF96B001229EE056D001229EE3F7000A7
:104450001229EE4F70001229EEFE71001229EE8E25
:1044600072001229EEBB73001229EE2B7400122980
:10447000EE9B75001229EEFE75001229EE008004F5
:104480001229EE9B80041229EE0E81041229EE1EE1
:1044900081041229EEBD81041229EE198204122929
:1044A000EE5483041229EE7883041229EEEF83047C
:1044B0001229EE4084041229EE9E84041229EEF99A
:1044C00084041229EECC87041229EEC38804122931
:1044D000EE3989041229EE108B041229EEB38B04F5
:1044E0001229EE6C8C041229EED18C041229EE40B4
:1044F0008D041229EE638E041229EE588F041229BE
:10450000EE938F041229EEAA8F041229EED48F04A1
:104510001229EE1390041229EE8E90041229EE0552
:1045200092041229EEBF93041229EE129504122967
:10453000EE8096041229EEAC97041229EE39980405
:104540001229EEA998041229EEBB99041229EE391A
:10455000F4041229EEA4F4041229EEECF404122956
:10456000EE53F5041229EEAFF5041229EEEAF50434
:104570001229EE86F6041229EEE0F6041229EE4C1A
:10458000F8041229EED3F8041229EE14F9041229C2
:10459000EE3FF9041229EEC0F9041229EE08FA04DC
:1045A0001229EE2EFA041229EE80FB041229EE8560
:1045B000FB041229EEFCFB041229EE68FC0412290C
:1045C000EE63FD041229EE4FFE041229EE56D605C5
:1045D0001229EE09D7051229EED1D7051229EE26A8
:1045E000D8051229EEACD8051229EEDEC305122932
:1045F000EEFCC3051229EE40C4051229EE66C4057F
:104600001229EE88C4051229EEA0C4051229EEB8BD
:10461000C4051229EED0C4051229EE7AC505122967
:10462000EEBCC5051229EEC6C5051229EEDBC5058F
:104630001229EEE2C6051229EEFDC6051229EE0684
:10464000C7051229EE0FC7051229EE18C705122952
:10465000EE22C7051229EE9FC7051229EECCBA0536
:104660001229EEF8BE051229EE14BF051229EE1923
:10467000BF051229EE95E8051229EECFCB051229C8
:10468000EEE5CB051229EE83CD051229EECECD0540
:104690001229EE3ACE051229EE39CF051229EE681D
:1046A000CF051229EE7ACF051229EE9CEB051229CF
:1046B000EE2ED3051229EE8BD3051229EECBD305AE
:1046C0001229EECDD4051229EEE5D4051229EEF714
:1046D000D4051229EE23D5051229EE5AD505122943
:1046E000EE6AD5051229EE80D5051229EEA5D5056D
:1046F0001229EE33D6051229EEBCFF021229EE5024
:10470000A4031229EEEFA3031229EE96A3031229A4
:10471000EE1DA3031229EEF3A2031229EEE8A00373
:104720001229EEB8A0031229EE7CA0031229EE682C
:10473000A0031229EED49F031229EEF29E03122940
:10474000EE249E031229EED39B031229EEA89B03AD
:104750001229EE499B031229EEBA99031229EE4859
:1047600099031229EE4599031229EE8D9703122918
:10477000EE4497031229EE1E97031229EE5A960370
:104780001229EEA494031229EED9B1031229EE9254
:10479000B1031229EEDCB0031229EE50B003122946
:1047A000EE41B0031229EE2EAD031229EE7BAA03CF
:1047B0001229EE4494031229EE1594031229EE12E5
:1047C00094031229EEFD93031229EE42A903122944
:1047D000EEBD93031229EEA493031229EEAE9203C9
:1047E0001229EE6D92031229EECBF5051229EEFA8D
:1047F00091031229EE63A8031229EEC7910312292F
:10480000EE6C91031229EE3B91031229EE048E0304
:104810001229EE168D031229EED08B031229EE7E9B
:104820008B031229EE728B031229EED98A03122907
:10483000EEA789031229EEF886031229EE9B840362
:104840001229EE4F84031229EE3483031229EEC994
:1048500082031229EEF381031229EEAF810312299C
:10486000EE0080031229EE6B80031229EE328003E2
:104870001229EEB1B00500000080FB8F000100BEE0
:104880001387000100BD132400020031152500022A
:1048900000331526000200351527000200371528C1
:1048A0000001003915290001003A15840004003B7D
:1048B00015860001003F152A00010040152B00015C
:1048C0000041152C00010044152D000800A5132EF1
:1048D00000010045152F000100461530000100477A
:1048E0001531000100481532000100AD13330001FD
:1048F00000AE1334000100491536000100AF133833
:104900000001004A15390001004315830002005CD4
:104910001563000100BA13640001009C13650001D7
:104920000042156D000100BB13710008009D136665
:104930000001005B15430001004C15440002004DCE
:1049400015450001004F15460002005015470008AC
:1049500000B2134800010052154B0001005315042A
:104960000001005E15A10001006115370001006023
:1049700015880001005F153C000100B0133D0001E7
:10498000004B1549000200541567000100BC134D8F
:1049900000020056154E00010058154F0002005944
:1049A000153E000100B113000000000000000136B8
:1049B00036010100010201000103010001040106AA
:1049C0000605020000070100340801000F09040178
:1049D000010D0100FF0E0800001702000019010080
:1049E000FF1A0100011B0100FE1C0100081D02004E
:1049F000001F01000120010001210200002301002D
:104A00000F240200002601000127010008280200EF
:104A1000FF2A0100072B0102402C0100002D01009C
:104A2000012E0100012F0100FF30010B1C31080095
:104A3000003A0100083B01000F3C0100013D01006C
:104A4000FF3E04000042040000460400004A040047
:104A5000004E04000052040000560400005A0400F6
:104A6000005E20FFFF36000100060000000F00007E
:104A7000000000000000000000000003FFFF000035
:104A80000403FFFF0000FFFF0FF4010005C404034F
:104A900020000100000B00000000000000000301E6
:104AA0000F000000000000000000000000000000F7
:104AB00000000000000000000000000000000000F6
:104AC00000000000000000000000000000000000E6
:104AD00000000000000000000000000000000000D6
:104AE000000000010371030103010301030103013D
:104AF0000322030203010310030003000300030069
:104B00000300030003000342030003240306030021
:104B100003000304031203250323032503230304D3
:104B20000304030003000300034403000300032302
:104B3000030003650321003503810300030503001F
:104B4000030003000300032503230303047104028D
:104B5000046004110470040204020401040204103D
:104B600004610400041404630473047204620443C3
:104B700004000413040604000400040404120400E6
:104B80000400040004000451046400000400040054
:104B90000444040004000400040004650400043517
:104BA000048104640005040004830400040300710C
:104BB00000300160001100700031022003500480B9
:104BC00000100061000000140063007300720062B6
:104BD0000043000000130006000000000004001263
:104BE000000000000000000000040004003700374F
:104BF000003C0244000000000000000000650000CE
:104C00000035008100000005000000830000000165
:104C100001710101010101110101013101010101D4
:104C2000018001100161013B0014006301730172F6
:104C300001620143010001130106013D0135000439
:104C4000011201000100010001000104010401330F
:104C50000133013C014401320136000001000165CD
:104C6000010001350081010001050182018301007D
:104C7000010302710230016002110270020102029E
:104C80000202028002100261023A004100630273D4
:104C900002720262024302000213023800000200A4
:104CA00002040212020002000200020002040204D6
:104CB00002370037003C02440200023900000200C3
:104CC00002650200023502810200020502820283AF
:104CD0000200020000BC4413002C440100BC44024A
:104CE00000AE430300B4430400BA430500C04306CA
:104CF00000CC433000F0433100EA433200FC433340
:104D00000002443500084434000E443600144411B7
:104D1000002044140026441500DE431F00E443FF36
:104D2000FF000001B23006E83008E2300B0031101D
:104D30001C300A123102B83005D63007BE300C9A4A
:104D4000300DA63064242EFF000007ECFDFDFDECC5
:104D5000DCDCCCBCACAC9C9C8C7C7C6C6C5C5C5C13
:104D60004C4C3C3C2C2C1C1C03EAF5E5D5D5C5B5B8
:104D7000A5959585857575656555554545353525E3
:104D80002515150500160F00000B150B0200022259
:104D90000F3300000E0C0E020B040B0A0708000F65
:104DA000000119161816161823030000034A494378
:104DB0004E181A250502303017181921301B1D1FF7
:104DC0003000393D3F373C3C362C442D30301618EE
:104DD0001920231A1C1E30020402010101010902DC
:104DE00000BE040A7F003C000E0000000000E80343
:104DF0003C0008100C0A1503090900040003FF1EFB
:104E00001E01050C0504040810080328C082C08395
:104E1000901325E4F0A3F07CD57D047A447B121234
:104E20004102122E2A12485E122E30026B9D74F33C
:104E300012242C74F5122AB789098A088B0AE970A2
:104E40005F74026508703E9012637408F0750C0080
:104E5000780C122A0FECF50C780C122A0FEBF50CDB
:104E6000780C122A0F90153B12284190153FE0F95B
:104E70007CB27D1390155C126BAE122E5474071227
:104E80002A39024F42740165086003024F479012AD
:104E9000637408F07B00AA0AA90A122E90024F42FE
:104EA000740165096009740265096003024F47EAED
:104EB00060067403650870429012637402124F68B2
:104EC000122C89122E42E9F9901269E0A2E34010F7
:104ED000E9700D901329E004F064047003124F721E
:104EE00074036508705E90132AE0F8740128F0E8F6
:104EF000C39405404F124F72804A74016508704791
:104F000074016509901263702E740AF07401122CFA
:104F1000B8E4F07402122CB87403F004122CB8E454
:104F2000F0A3F0A3F0A3F07408122CB8E4F0AA18D0
:104F3000AB191230C48027740A124F68122C8912E0
:104F40002E78E9F9E9601790809C1228417A017B5C
:104F500000901260E0F91240B47404122A39740B04
:104F6000122A397F050226BDF090153FE0F9901511
:104F70003B2290153BE4F0A374F8F0A374FFF0A378
:104F80007407F02274F612242CE9FFEAFE7AD1F9B4
:104F9000123F708A828B83E5824583702A7A027B76
:104FA00000123F52EA4B700E7A107B00901260E0C4
:104FB000F9123F9480148A828B8374D1F0EFA3F0AE
:104FC000EEF9123F5E8003EFA3F002518974F712ED
:104FD000242C89089007021273AEFF90152DE0F47F
:104FE0007003A3E0F4702D900C0FE090152DF0A34A
:104FF000E4F080208E828F83A3126290600F8E82F5
:105000008F83A3A312628DFAA9081243968E828F12
:10501000831250B5EE4F70DC90152DE0F47003A3B1
:10502000E0F4600A90152DE0FAA9081243961231B7
:10503000CC90122E1259B91231C67F010226BD74CE
:10504000F012242C890B8C0C750800750900741063
:10505000122CB81251297412122CB81250B5803C7F
:10506000A80A125119F50EA3E0F50FA80912510C68
:10507000F583E0650E7004A3E0650F70141250AC68
:10508000EE28F582EF39F583E50EF0A3E50FF00584
:1050900008050AE50AC3950C40C60509E509C3954C
:1050A0000B5005750A0080EBA9088010A808E828B5
:1050B000F8E433F922125130FEE9FF227F0802267C
:1050C000BD74F412242C890B8C0A750800740C1220
:1050D0002CB812512980020508E508C3950B502809
:1050E00075090080020509E509C3950A50E9A80879
:1050F00012510C1273ACFFA8091251196E7003A360
:10510000E06F70E1790180027900802CE828F8E4F2
:1051100033F9EA28F582EB3922E828F8E433F9EC90
:1051200028F582ED39F583E022125130FCE9FD22A9
:10513000126889E822122A397F040226BD74F61209
:10514000242C1251E37003A3E06D70177508677586
:1051500009127808122A0BEEFA1244C27402122ABB
:1051600039801F7508027509807808122A0B8C088F
:105170008D097808122A0B1251D51244E6740412D4
:105180002A3980057402122A397F020226BD74F67C
:1051900012242C1251E37003A3E06D70177508748C
:1051A0007509127808122A0BEEFA1244C87402121A
:1051B0002A39801F7508037509807808122A0B8C1C
:1051C000088D097808122A0B1251D51244E674048E
:1051D000122A3980B412738A3FF583E0FD7C801275
:1051E00064D722EAFEEBFF1264EEFCE439FD901274
:1051F0002EE06C2274F612242C74FE122AB7EAFEFA
:10520000EBFF851882851983E4F0A312596E1266AC
:1052100023FBECFA88828983A3A3E0F97509007562
:105220000800600574FF697005750882803E901261
:105230002EE06A7003A3E06B701BAA18AB1912373B
:1052400048E9FA8518828519831268757003750814
:10525000838A0980179013BDE060046401700575AE
:1052600008818008E06402700375088085188285D3
:1052700019831271CBFDA908EEFAEFFB1244CEE5BB
:105280000960118518828519831268756006126B92
:10529000A8123FF402518474F212242CEAFEEBFFB0
:1052A0007508007509001264EAF50AE439F50B1275
:1052B00031CCEA650A7003EB650B701212375AE9BC
:1052C00014F50879017AF17B1212376080037509B1
:1052D00080127198F50C780C122A0F750CF1750D6F
:1052E00012780C122A0B7808122A0F780A122A0B4D
:1052F000E509F5087808122A0F1262FC12719BF971
:105300007A057B801244D4740702738274F61224E7
:105310002C890975080080298A828B831273AEF864
:10532000E4C8F9EE28E439FF1250ACEC28F582ED20
:1053300039F583EEF0A3EFF0EA2402FA50010B05F1
:1053400008E508C3950940D002518974E812242C5D
:1053500074FC122AB78A168B177511007402122C6E
:10536000B8E4F0A312663EF0A3F0125DC835171240
:105370005940F50B850A82F5831275E8FEE439FF82
:10538000850A82850B83A3A3E0FA850A82850B83B5
:10539000A3A3A3E0F9EAF508E439F509EEFAEFFB77
:1053A000123268E964016016EEFAEFFB123268E926
:1053B000703D90122EE06E7003A3E06F60311266B4
:1053C0002F122A0FE4F508F5097808122A0B78083D
:1053D000122A0F90122E1228457508807808122A7A
:1053E0000F1257261244D47407122A3902571C850B
:1053F0000A82850B83A3A3A3A3E0F510E50A240585
:10540000F50A5002050BE510602B12756D123FEE88
:105410007402122CB81259B97402122CB8126875A1
:1054200060137402122CB812574EA9101243C68A88
:105430000A8B0B8003751000850A82850B83127519
:1054400007602712756D123FEE851882851983EA71
:10545000F0A3EB12687AE8496010851882851983F9
:1054600012574EA90F1243C68003750F0090070212
:105470008052850A82850B83A3A3A3A3A3A3A3A31E
:10548000E4F0A3F0AA0AAB0B851482851583A3A3CD
:10549000E0F812628DF9123F5E851282851383E077
:1054A000C0E0A81174F128F582E43412F583D0E04D
:1054B000F00511A2005007AA12AB13123FF4851495
:1054C00082851583E0F514A3E0F515E51445157004
:1054D00003025694851482851583A312629060DEC0
:1054E000851482851583A3A3A3A3A3A3A3A3E0A2EA
:1054F000E050CB851482851583A3A3A3A3126875FE
:10550000851482851583A3A3601E126291FA790126
:10551000851482851583A3A3A3A312574112261DC8
:105520008A128B13D200800F125741A3A3A3E0F578
:1055300012A3E0F513C200E512451370030254B341
:10554000851282851383A3E065087004A3E06509D2
:10555000600F74FF6508700474FF650960030254EE
:10556000B3851282851383A3A3A3A3A3A3A31228A5
:1055700045851282851383A3A3A3A3A3A3E0FC7490
:1055800004122CB8126BAEA9101243A87402122A8E
:1055900039E9703C851282851383A3A3A3A3A3A337
:1055A000A3A3A3A3122845851282851383A3A3A3D3
:1055B000A3A3A3A3A3A3E0FC7402122CB8126BAEA6
:1055C000A90F1243A87402122A39E970030254B3D6
:1055D000E50F2510C333240AFA7B00123F528A0AD2
:1055E0008B0BEA450B70030254998A828B8374D229
:1055F000F0851682851783A3A312686B8A828B833A
:10560000A3A3E8F0A3E91274D5A3E5101275F6E59B
:105610000FF0E510602C127476350BFB850A82853D
:105620000B831259B47402122CB8125757122A075E
:10563000AC10EC2CFCE433FD123F2E7403122A391B
:10564000800D8A828B83A3A3A3A3A3E4F0A3F0E538
:105650000F7003025472A8101250AEE50A28F8E544
:105660000B39F9E812747739FB850A82850B83A31D
:10567000A3A31259B4851882851983125757122A89
:1056800007AC0FEC2CFCE433FD123F2E7403122AFE
:1056900039025484E511602512662F122A0F75080D
:1056A000F17509127808122A0BE511F5087808122D
:1056B0002A0F90122E1228457508008029EEFAEF65
:1056C000FB123268E9702F12662F122A0F7508F14B
:1056D0007509127808122A0B7508007808122A0F2B
:1056E00090122E1228457808122A0F1257261244BB
:1056F000D47407122A397402122CB8126875600B20
:105700007402122CB8126BAE123FF4851882851900
:10571000831268756006126BA8123FF47404122A93
:10572000397F100226BDE5162402FCE43517FDE59D
:1057300016240FF582E43517F583E0F97A067B80AD
:105740002212574522E0F8A3E0F5838882221271E5
:10575000CBFDAA0AAB0B22E0F50CA3E0F50D750E0C
:1057600000780C2274F112242C74F4122AB78A08DF
:105770008B09ECFEEDFF740B122CB87403F0122AA7
:105780008F1241021231C68A0A8B0BAC0AAD0B7420
:1057900003122A8F1240FCE9600A12593A6010E0A5
:1057A0006401600B85188285198374840258F08E19
:1057B000828F83A3A3A3A3A3A3A3A3E06013F46096
:1057C0001012593A7016EE241412719B6003F47093
:1057D0000B85188285198374820258F0127361E078
:1057E00064217002A3E060030258C78518828519FE
:1057F00083748C12596E640360030258B1740112F1
:105800002A971272801247E0E960030258B11243EE
:10581000068A0A8B0BEA450B70030258F18E0C8F37
:105820000D750E00780C122A077C157D00123F2E94
:105830007403122A39850882850983A3A3E50A2403
:1058400015FCE4350BFD7409122967126F77C0E06F
:10585000E50A241EF582E4350BF583D0E0125E9F45
:10586000C0E0E50A241FF582E4350BF583D0E0F0B3
:10587000E50A2420F582E4350BF5837405F0EE2467
:105880000BFE50010FFAEFFB1238027D007C00790D
:1058900000EEFAEFFB12448C90809C1228417A00B3
:1058A0007B10901260E0F91240B47404122A39801F
:1058B00078125930122A0F1259481247FE740112F9
:1058C0002A39E9702C8014125930122A0F125948C3
:1058D0001247F87401122A39E9700D85188285196A
:1058E00083E4F01242D68009851882851983748872
:1058F000F0126F77F50A780A122A0F7401122A87BC
:10590000880A890B780A122A0BE508240CF582E430
:1059100035091259404480F50B780A122A0B12639C
:10592000B91244807405122A39740C122A39804C39
:10593000EE12717AE0F50A780A2212597364032292
:10594000F583E0F50AA3E022EE240BFCE43FFD8E94
:10595000828F83A3A3A3A3A3A3A3A3A3126BEB8E02
:10596000828F83A3A3A3A3A3A3A3A3E0F922F0128E
:10597000597322126429E022EEFAEFFB7F07022618
:10598000BDC082C08374F3122AB78518828519833B
:10599000E4F004122CB81259B97403122CB8AA827C
:1059A000AB83122D52AA18AB19122D88740D122A2E
:1059B00039026B9DA3A3A3A3A3EAF0A3EBF0227487
:1059C000F612242CEAFEEBFF1268648882898312A7
:1059D00071D090126FE058F508A3E059F509E50879
:1059E0004509601C7808122A0B90122E12284512C5
:1059F0007198FD7C001264D31244E07404122A39B9
:105A000002518974F412242C74FF122AB7EAFEEBB7
:105A1000FF851882851983E4F09013B1E06021EED0
:105A2000240B12719B640160178E828F83A3A312D3
:105A3000686BEE241512719B687003A3E069600324
:105A4000025AF7126864E8FAE9FB88828983A3A303
:105A5000A3A3A3A3A3A3E0FC88828983A3A3A3A3F6
:105A6000A3A3A3A3A3E0F8E4C8F9EC28F508E4395C
:105A7000F509EC45096010EC9471E9940850089020
:105A800013BDE06402700A851882851983748080D2
:105A900038122DC48A0A8B0BA80AA90BE849602189
:105AA00088828983A3A3A3A3E06016C39403501143
:105AB000E82412125AFCE82414125AFC1242D6802E
:105AC000098518828519837481F012661E12663664
:105AD000122A0F7401122A87880889097808122A65
:105AE0000B75081F7509807808122A0B1262F212D2
:105AF00044807405122A397401025135F582E43963
:105B0000F583E508F0A3E509F02274EA12242C7469
:105B1000DB122AB78A148B15751200751300125DFB
:105B2000C83515F583126291F50EAC18AD197A00DF
:105B30007B00799C122EA27A047900122D9AEAF544
:105B40000C851882851983E02AF0F8E50EC3984089
:105B500003025D2CE0C3950EF509C3940440037560
:105B60000903E50975F01AA4FAABF0123FEE8A12A8
:105B70008B13EA45137003025D2F750D00AE12AF53
:105B800013850E08807E125DAB123F3A850A82852E
:105B90000B83A3A3A3A3E0702D850A82850B831238
:105BA0006875700C12718DF0EE24181271908010CF
:105BB000125DB8F0900564E014C0E0125D8FD0E093
:105BC000125DFDE48034900564E004C0E0125D8F56
:105BD000D0E0125DF0C39403EE4003025C941271B6
:105BE000767402125DF064017003025CA1EE24156C
:105BF000125DBBF0EE2416125DBBF0EE241AFE50CF
:105C0000010F050DE50DC395094003025CCCE508C5
:105C1000C3950C4003025CAAAA087B00122E0C8AD2
:105C20000A8B0B0508900551125DD8124102850AB6
:105C300082850B8312686B125D9DE8F0A3E9125E0A
:105C40000D850A82850B83A3A3A3A3A3A3A3A3A368
:105C5000A3E0C0E0125D85D0E0F07401122CB8E43E
:105C6000F0850A82850B8312686B7402122CB812BD
:105C70005DD37401122A8F122D76E964016003024C
:105C80005B867404122CB8AC82AD83125DB11241F4
:105C900002025B8C125DB9125DF064036003025B6B
:105CA000EDEE2415127190025BF3E50CC3950E40E6
:105CB00005750800801DE50EC3950CF508801412CB
:105CC0005DB8F0EE241AFE50010F050DE50DC395E9
:105CD00009505C740E122A97AA087B007987122E4D
:105CE000A205087418122CB8125DD8124102125D78
:105CF000AB123F3AEE2412F8E43FF9740E122CB8BE
:105D0000126BAE88828983EAF0A3EB125DFD740307
:105D1000125E0D741D122CB8E0C0E0125D85D0E05B
:105D2000127469E849709812718D80967509007532
:105D30000A00780A122A0F7812122A0B7809122AFE
:105D40000FE50EF5097809122A0F7405122CB8E038
:105D5000FD7C00E5141273963515FBE5141271876E
:105D60003515F583E0F912451C7405122A39E51240
:105D700045136007AA12AB13123FF47425122A3997
:105D80007F0E0226BDEE2419F582E43FF583221230
:105D90005D9322EE2418F582E43FF58322EE125D36
:105DA000A2222412F582E43FF583227C087D00794B
:105DB000FFEE1274773FFB22EE2414F582E43FF5E8
:105DC000837401228A088B09EA1274B722F582E4EF
:105DD0003FF583E8125DEB221271AC125DEA7C653F
:105DE0007D05EE2402FAE43FFB22E8F0A3E9F0226D
:105DF000F0850A82850B83A3A3A3A3E0221271EF8F
:105E00007402F0EE2416F582E43FF58322F0EE24CE
:105E100017F582E43FF5837402F0125D9374FFF08E
:105E20002274F612242C74F9122AB7125DC43509B3
:105E3000127688123F46EAF8EBF9ECFAEDFB85188A
:105E400082851983122CA18E828F83A3A3A3A3E042
:105E5000C0E07404122CB8D0E0127492F8740512E9
:105E60002CB87401F07406122CB87401F09012383A
:105E7000F090124104127288FAA3E0FB90123912DA
:105E800059B9E8901242125E9F901237F0AA18ABEF
:105E900019122E48E96003122E4E7407025186F043
:105EA000E508240F125EA822F582E43509F583E0A7
:105EB0002274F212242C74FF122AB77508007E0097
:105EC0007F001230F48A0A8B0B1230F48A0C8B0D8F
:105ED000A80CA90D80080508126047126869E849F6
:105EE00070F49013BDE0600764016003025FBF12AD
:105EF00030F48A0C8B0DA80CA90DE849603D800692
:105F000012604712686988828983126BAE900551CE
:105F1000E06A7003A3E06B600C126047F583126BBC
:105F2000AEEA4B70DB8882898312686B900551E082
:105F3000687003A3E0697003025FBF7A167B0012EA
:105F40003FEE8A0C8B0DAE0CAF0DEE4F60719005DD
:105F5000511271A8125DD39005461271A3A3F012DD
:105F60003250E98E828F83A3A3A3A3A3F0901540A0
:105F70001271A3A3A3A3A3A3F07C657D0512728075
:105F8000124102AA18AB1979411245F4851882858D
:105F90001983E0600890122E12686B800478FE79F5
:105FA000FF8E828F83A3A3A3A3A3A3A3125DD31207
:105FB0007175E50AF0A3E50BF08E0A8F0B050890CA
:105FC0001242E0F8E508C398500479008027E508FC
:105FD000C398F9C39406400279057800800DE50A5C
:105FE000127181350B125940F50B08901242E0FAFC
:105FF000E8C39A40E97509007809122A0F780A1255
:106000002A0BE9F5097809122A0F901242E0F509E6
:106010007809122A0FAD087C007A397B129012376A
:10602000E0F91245167405122A399013BDE0600498
:106030006401700BEE4F6007EEFAEFFB123FF412B3
:106040002E4E7401027382E8127181392274F012AB
:10605000242C74FF122AB78A0A8B0B7E008E0E8EB8
:106060000F125DC8350BF583126291FFAC18AD19A4
:106070007A007B00799D122EA2851882851983E013
:10608000F8EFC3984003026127E0C39FFEC3940B5F
:1060900040027E0AEE75F007A4FAABF0123FEE8ADA
:1060A000088B098A0E8B0FEA450F6079750C00800A
:1060B0001A850882850983A3A3A3A3A37403F0E52B
:1060C000082407F50850020509050CE50CC39E508D
:1060D00056AC08AD09E50C2FFAE43400FB798B12BD
:1060E0002EA2850882850983A3A3A3A3A3E014603D
:1060F0000814601314601F80B8850882850983A383
:10610000A3A3A3A3E480B7850882850983A3A3A3DF
:10611000A3A3740180A8850882850983A3A3A3A3F0
:10612000A3740280997E007508007808122A0F78FF
:106130000E122A0BEEF5087808122A0FEFF50878F0
:1061400008122A0F7405122CB8E0FD7C00E50A1233
:106150007396350BFBE50A127187350BF583E0F971
:106160001245227405122A39E50E450F6007AA0E62
:10617000AB0F123FF47401122A390250BC74EE12B4
:10618000242C74FE122AB78A0C8B0D751000751121
:1061900000125DC8350DF583126291F50AAC18AD99
:1061A000197A007B0079A31247EC126BA8C3E50AA9
:1061B0009AE49B507A851882851983A80AE0C398CF
:1061C000FEA3E09400FFC3EE9404EF940040067E2B
:1061D000037F008004EE4F6056EEFAEFFBEA75F0A5
:1061E00015A4FAA8F075F015EBA428FB123FEE8A6F
:1061F000088B098A108B11EA45116033750B007505
:106200000E00801FAC08AD09A80AE50E28FAE43498
:1062100000FB79A21247ECE5082415F508500205A9
:1062200009050EC3E50E9EE49F40D9EEF980057581
:106230000B8B79007508007808122A0F7810122A43
:106240000BE9F5087808122A0FE50AF50878081214
:106250002A0F7405122CB8E0FDAC0BE50C127396F6
:10626000350DFBE50C127187350DF583E0F912450C
:10627000287405122A39E51045116007AA10AB11E0
:10628000123FF47402122A397F0A0226BD125747C0
:10629000A3125745E02274F612242C74FF122AB779
:1062A000EAFEEBFFEE125DC93F1273B3A3A3A3A3F3
:1062B000A3A3A3A3E0F9122E6CE9851882851983A4
:1062C000F07508007808122A0F7401122A878808CE
:1062D00089097808122A0B75083575098078081223
:1062E0002A0B1262F21244807405122A39740102D8
:1062F000518679011262FCFAE43FFB22EE2402FC93
:10630000E43FFDEE240F2274F412242C74FA122AB6
:10631000B7125DC435091273ACFFEEFAEFFB122D14
:1063200058E960171231C68A0A8B0BAC0AAD0BEE26
:10633000FAEFFB1240FCE96401700A7401122CB8F8
:10634000E4F0A380097401122CB8EEF0A3EF1274EC
:10635000E2F8A2E650087403122CB87401F0E8A227
:10636000E750087404122CB87401F07405122CB8AC
:10637000E4F004122A8F122E96E98518828519837B
:10638000F07A007B001231EA750A00780A122A0FAF
:106390007401122A87880A890B780A122A0B750A57
:1063A00034750B80780A122A0B1263B91244807478
:1063B00005122A3974060251357901E5082402FCD8
:1063C000E43509FDE508240FFAE43509FB2274F6EB
:1063D00012242C74FF122AB712641D126291F91252
:1063E0002E5AE98518828519831274C9702C750894
:1063F000007808122A0F7401122A87880889097800
:1064000008122A0B7508367509807808122A0B12B3
:1064100062F21244807405122A390262EDEAFEEB40
:10642000FF1264252212642922EE2413F582E43F30
:10643000F583220229EB74F412242C74EF122AB78C
:10644000EAFEEBFF1264EAF508E439F50990122E32
:10645000E065087004A3E065097052A818A91988BE
:106460000A890B780A122A0B750A11750B00780A33
:10647000122A0B7C007D007A817B00124078740424
:10648000122A39E97027750A00780A122A0F740156
:10649000122A87880A890B780A122A0BAC08AD09E0
:1064A0001264D31244DA7403122A398021750A1156
:1064B000750B80780A122A0B7808122A0B12719831
:1064C000FD7C841264D31244E67404122A397411D8
:1064D0000251351264D722EE2402FAE43FFBEE2487
:1064E0000FF582E43FF583E0F9221264EE22126494
:1064F00029126889888289831275EC2274F112242A
:106500002C74EB122AB712641DE0126623FAE4CA57
:10651000FBEC2AF508E43BF50990122EE0650870C3
:1065200004A3E0650960030265C688828983A3A38A
:10653000E09410500F88828983A3A3E08518828598
:10654000198380088518828519837410F0E0C0E0F3
:106550007404122CB8D0E012739BA982AA83890C10
:106560008A0D750E00780C122A077407122CB8E0F9
:10657000FC7D007408122CB8AA82AB83123F2E74E3
:1065800003122A397404122A87880A890B780A129E
:106590002A0B750A11750B00780A122A0B7C007DF4
:1065A000007A817B001240727404122A397404123A
:1065B0002CB8E09012676005E0D2E48003E0C2E40A
:1065C00012663EE480088518828519837484F0E0A1
:1065D000C0E07401122CB8D0E0F07402122CB8E5BF
:1065E00008F07403122CB8E508F012661E12663625
:1065F000122A0F7402122A87880889097808122A39
:106600000B7508147509807808122A0B7903126239
:10661000F41244807405122A39741502592B12732E
:106620008A3F22F8A3E0F9888289831271CB22E5A0
:106630001612738B3517F583E0F508780822F0857C
:1066400018828519832274F612242C74E0122AB75A
:10665000EAFEEBFFAC18AD1912446E9013BDE06476
:1066600002702F1231C67402122CB8AC82AD8312A4
:1066700040FCE9601D1231CC8A088B09A808A909E1
:10668000851882851983E0687003A3E069700302AE
:10669000685F1233827402122CB8126BA412329803
:1066A000E96401700302685F7418122A8F1231D8EE
:1066B0007402122CB8AC82AD837418122A8F124067
:1066C000FCE960321231D28A088B09A808A9098531
:1066D0001882851983E0687003A3E0696018851843
:1066E0008285198312686B900547125DD37A477BC8
:1066F00005794B1245FA9013BDE060076401600311
:106700000267A11231CC8A088B09A808A909EE24D6
:106710001112719B687003A3E069605A7402122C15
:10672000B8AA82AB83122DC48A088B09A808A909CC
